{
  "contractName": "myNft",
  "abi": [
    {
      "constant": true,
      "inputs": [
        {
          "internalType": "uint256",
          "name": "",
          "type": "uint256"
        }
      ],
      "name": "AuctionNft",
      "outputs": [
        {
          "internalType": "uint256",
          "name": "currentMoney",
          "type": "uint256"
        },
        {
          "internalType": "address",
          "name": "payer",
          "type": "address"
        },
        {
          "internalType": "uint256",
          "name": "endTime",
          "type": "uint256"
        },
        {
          "internalType": "bool",
          "name": "isSuccess",
          "type": "bool"
        }
      ],
      "payable": false,
      "stateMutability": "view",
      "type": "function"
    },
    {
      "constant": true,
      "inputs": [
        {
          "internalType": "uint256",
          "name": "",
          "type": "uint256"
        }
      ],
      "name": "allNfts",
      "outputs": [
        {
          "internalType": "address payable",
          "name": "owner",
          "type": "address"
        },
        {
          "internalType": "bool",
          "name": "isAuction",
          "type": "bool"
        },
        {
          "internalType": "bool",
          "name": "isBuy",
          "type": "bool"
        },
        {
          "internalType": "uint256",
          "name": "count",
          "type": "uint256"
        },
        {
          "internalType": "string",
          "name": "name",
          "type": "string"
        },
        {
          "internalType": "string",
          "name": "pictureHash",
          "type": "string"
        }
      ],
      "payable": false,
      "stateMutability": "view",
      "type": "function"
    },
    {
      "constant": true,
      "inputs": [
        {
          "internalType": "uint256",
          "name": "",
          "type": "uint256"
        },
        {
          "internalType": "uint256",
          "name": "",
          "type": "uint256"
        }
      ],
      "name": "record",
      "outputs": [
        {
          "internalType": "address",
          "name": "",
          "type": "address"
        }
      ],
      "payable": false,
      "stateMutability": "view",
      "type": "function"
    },
    {
      "constant": true,
      "inputs": [],
      "name": "totalNft",
      "outputs": [
        {
          "internalType": "uint256",
          "name": "",
          "type": "uint256"
        }
      ],
      "payable": false,
      "stateMutability": "view",
      "type": "function"
    },
    {
      "constant": false,
      "inputs": [
        {
          "internalType": "string",
          "name": "name",
          "type": "string"
        },
        {
          "internalType": "string",
          "name": "picture_hash",
          "type": "string"
        }
      ],
      "name": "newNft",
      "outputs": [
        {
          "internalType": "uint256",
          "name": "",
          "type": "uint256"
        }
      ],
      "payable": false,
      "stateMutability": "nonpayable",
      "type": "function"
    },
    {
      "constant": false,
      "inputs": [
        {
          "internalType": "uint256",
          "name": "index",
          "type": "uint256"
        },
        {
          "internalType": "uint256",
          "name": "_endTime",
          "type": "uint256"
        },
        {
          "internalType": "uint256",
          "name": "money",
          "type": "uint256"
        }
      ],
      "name": "newAuction",
      "outputs": [],
      "payable": false,
      "stateMutability": "nonpayable",
      "type": "function"
    },
    {
      "constant": false,
      "inputs": [
        {
          "internalType": "uint256",
          "name": "index",
          "type": "uint256"
        },
        {
          "internalType": "uint256",
          "name": "money",
          "type": "uint256"
        }
      ],
      "name": "invest",
      "outputs": [],
      "payable": false,
      "stateMutability": "nonpayable",
      "type": "function"
    },
    {
      "constant": false,
      "inputs": [
        {
          "internalType": "uint256",
          "name": "index",
          "type": "uint256"
        }
      ],
      "name": "end_auction",
      "outputs": [],
      "payable": false,
      "stateMutability": "nonpayable",
      "type": "function"
    },
    {
      "constant": false,
      "inputs": [
        {
          "internalType": "uint256",
          "name": "index",
          "type": "uint256"
        }
      ],
      "name": "claim",
      "outputs": [],
      "payable": true,
      "stateMutability": "payable",
      "type": "function"
    }
  ],
  "bytecode": "0x60806040526000805534801561001457600080fd5b50611740806100246000396000f3fe6080604052600436106100865760003560e01c8063379607f511610059578063379607f51461022e578063490c06c11461025c5780639ed1def314610287578063c529de65146103fa578063d87aa6431461056a57610086565b80630f69f4a81461008b578063242403aa1461011f578063290f000a1461015a578063377144a6146101a9575b600080fd5b34801561009757600080fd5b506100c4600480360360208110156100ae57600080fd5b81019080803590602001909291905050506105af565b604051808581526020018473ffffffffffffffffffffffffffffffffffffffff1673ffffffffffffffffffffffffffffffffffffffff1681526020018381526020018215151515815260200194505050505060405180910390f35b34801561012b57600080fd5b506101586004803603602081101561014257600080fd5b810190808035906020019092919050505061060c565b005b34801561016657600080fd5b506101a76004803603606081101561017d57600080fd5b81019080803590602001909291908035906020019092919080359060200190929190505050610966565b005b3480156101b557600080fd5b506101ec600480360360408110156101cc57600080fd5b810190808035906020019092919080359060200190929190505050610adf565b604051808273ffffffffffffffffffffffffffffffffffffffff1673ffffffffffffffffffffffffffffffffffffffff16815260200191505060405180910390f35b61025a6004803603602081101561024457600080fd5b8101908080359060200190929190505050610b2a565b005b34801561026857600080fd5b50610271611057565b6040518082815260200191505060405180910390f35b34801561029357600080fd5b506103e4600480360360408110156102aa57600080fd5b81019080803590602001906401000000008111156102c757600080fd5b8201836020820111156102d957600080fd5b803590602001918460018302840111640100000000831117156102fb57600080fd5b91908080601f016020809104026020016040519081016040528093929190818152602001838380828437600081840152601f19601f8201169050808301925050505050505091929192908035906020019064010000000081111561035e57600080fd5b82018360208201111561037057600080fd5b8035906020019184600183028401116401000000008311171561039257600080fd5b91908080601f016020809104026020016040519081016040528093929190818152602001838380828437600081840152601f19601f82011690508083019250505050505050919291929050505061105d565b6040518082815260200191505060405180910390f35b34801561040657600080fd5b506104336004803603602081101561041d57600080fd5b8101908080359060200190929190505050611276565b604051808773ffffffffffffffffffffffffffffffffffffffff1673ffffffffffffffffffffffffffffffffffffffff16815260200186151515158152602001851515151581526020018481526020018060200180602001838103835285818151815260200191508051906020019080838360005b838110156104c35780820151818401526020810190506104a8565b50505050905090810190601f1680156104f05780820380516001836020036101000a031916815260200191505b50838103825284818151815260200191508051906020019080838360005b8381101561052957808201518184015260208101905061050e565b50505050905090810190601f1680156105565780820380516001836020036101000a031916815260200191505b509850505050505050505060405180910390f35b34801561057657600080fd5b506105ad6004803603604081101561058d57600080fd5b81019080803590602001909291908035906020019092919050505061141c565b005b60026020528060005260406000206000915090508060000154908060010160009054906101000a900473ffffffffffffffffffffffffffffffffffffffff16908060020154908060030160009054906101000a900460ff16905084565b610614611509565b600160008381526020019081526020016000206040518060c00160405290816000820160009054906101000a900473ffffffffffffffffffffffffffffffffffffffff1673ffffffffffffffffffffffffffffffffffffffff1673ffffffffffffffffffffffffffffffffffffffff1681526020016000820160149054906101000a900460ff161515151581526020016000820160159054906101000a900460ff1615151515815260200160018201548152602001600282018054600181600116156101000203166002900480601f0160208091040260200160405190810160405280929190818152602001828054600181600116156101000203166002900480156107615780601f1061073657610100808354040283529160200191610761565b820191906000526020600020905b81548152906001019060200180831161074457829003601f168201915b50505050508152602001600382018054600181600116156101000203166002900480601f0160208091040260200160405190810160405280929190818152602001828054600181600116156101000203166002900480156108035780601f106107d857610100808354040283529160200191610803565b820191906000526020600020905b8154815290600101906020018083116107e657829003601f168201915b50505050508152505090506000816020019015159081151581525050806001600084815260200190815260200160002060008201518160000160006101000a81548173ffffffffffffffffffffffffffffffffffffffff021916908373ffffffffffffffffffffffffffffffffffffffff16021790555060208201518160000160146101000a81548160ff02191690831515021790555060408201518160000160156101000a81548160ff0219169083151502179055506060820151816001015560808201518160020190805190602001906108e0929190611559565b5060a08201518160030190805190602001906108fd929190611559565b50905050600260008381526020019081526020016000206000808201600090556001820160006101000a81549073ffffffffffffffffffffffffffffffffffffffff021916905560028201600090556003820160006101000a81549060ff021916905550505050565b60006001600085815260200190815260200160002090508060000160009054906101000a900473ffffffffffffffffffffffffffffffffffffffff1673ffffffffffffffffffffffffffffffffffffffff163373ffffffffffffffffffffffffffffffffffffffff16146109d957600080fd5b4283116109e557600080fd5b60018160000160146101000a81548160ff021916908315150217905550610a0a6115d9565b60405180608001604052808481526020013373ffffffffffffffffffffffffffffffffffffffff16815260200185815260200160001515815250905080600260008781526020019081526020016000206000820151816000015560208201518160010160006101000a81548173ffffffffffffffffffffffffffffffffffffffff021916908373ffffffffffffffffffffffffffffffffffffffff1602179055506040820151816002015560608201518160030160006101000a81548160ff0219169083151502179055509050505050505050565b60036020528160005260406000208181548110610af857fe5b906000526020600020016000915091509054906101000a900473ffffffffffffffffffffffffffffffffffffffff1681565b42600260008381526020019081526020016000206002015410610b4c57600080fd5b600115156002600083815260200190815260200160002060030160009054906101000a900460ff16151514610b8057600080fd5b6002600082815260200190815260200160002060010160009054906101000a900473ffffffffffffffffffffffffffffffffffffffff1673ffffffffffffffffffffffffffffffffffffffff163373ffffffffffffffffffffffffffffffffffffffff1614610bee57600080fd5b610bf6611509565b600160008381526020019081526020016000206040518060c00160405290816000820160009054906101000a900473ffffffffffffffffffffffffffffffffffffffff1673ffffffffffffffffffffffffffffffffffffffff1673ffffffffffffffffffffffffffffffffffffffff1681526020016000820160149054906101000a900460ff161515151581526020016000820160159054906101000a900460ff1615151515815260200160018201548152602001600282018054600181600116156101000203166002900480601f016020809104026020016040519081016040528092919081815260200182805460018160011615610100020316600290048015610d435780601f10610d1857610100808354040283529160200191610d43565b820191906000526020600020905b815481529060010190602001808311610d2657829003601f168201915b50505050508152602001600382018054600181600116156101000203166002900480601f016020809104026020016040519081016040528092919081815260200182805460018160011615610100020316600290048015610de55780601f10610dba57610100808354040283529160200191610de5565b820191906000526020600020905b815481529060010190602001808311610dc857829003601f168201915b50505050508152505090503360036000848152602001908152602001600020826060015181548110610e1357fe5b9060005260206000200160006101000a81548173ffffffffffffffffffffffffffffffffffffffff021916908373ffffffffffffffffffffffffffffffffffffffff1602179055506000816020019015159081151581525050600181604001901515908115158152505080606001805180919060010181525050806000015173ffffffffffffffffffffffffffffffffffffffff166108fc349081150290604051600060405180830381858888f19350505050158015610ed7573d6000803e3d6000fd5b5033816000019073ffffffffffffffffffffffffffffffffffffffff16908173ffffffffffffffffffffffffffffffffffffffff1681525050806001600084815260200190815260200160002060008201518160000160006101000a81548173ffffffffffffffffffffffffffffffffffffffff021916908373ffffffffffffffffffffffffffffffffffffffff16021790555060208201518160000160146101000a81548160ff02191690831515021790555060408201518160000160156101000a81548160ff021916908315150217905550606082015181600101556080820151816002019080519060200190610fd1929190611559565b5060a0820151816003019080519060200190610fee929190611559565b50905050600260008381526020019081526020016000206000808201600090556001820160006101000a81549073ffffffffffffffffffffffffffffffffffffffff021916905560028201600090556003820160006101000a81549060ff021916905550505050565b60005481565b6000611067611509565b6040518060c001604052803373ffffffffffffffffffffffffffffffffffffffff1681526020016000151581526020016000151581526020016001815260200185815260200184815250905080600160008054815260200190815260200160002060008201518160000160006101000a81548173ffffffffffffffffffffffffffffffffffffffff021916908373ffffffffffffffffffffffffffffffffffffffff16021790555060208201518160000160146101000a81548160ff02191690831515021790555060408201518160000160156101000a81548160ff021916908315150217905550606082015181600101556080820151816002019080519060200190611175929190611559565b5060a0820151816003019080519060200190611192929190611559565b50905050600180600080548152602001908152602001600020600101819055506060600a6040519080825280602002602001820160405280156111e45781602001602082028038833980820191505090505b50905033816000815181106111f557fe5b602002602001019073ffffffffffffffffffffffffffffffffffffffff16908173ffffffffffffffffffffffffffffffffffffffff16815250508060036000805481526020019081526020016000209080519060200190611257929190611619565b5060008081548092919060010191905055506000549250505092915050565b60016020528060005260406000206000915090508060000160009054906101000a900473ffffffffffffffffffffffffffffffffffffffff16908060000160149054906101000a900460ff16908060000160159054906101000a900460ff1690806001015490806002018054600181600116156101000203166002900480601f0160208091040260200160405190810160405280929190818152602001828054600181600116156101000203166002900480156113745780601f1061134957610100808354040283529160200191611374565b820191906000526020600020905b81548152906001019060200180831161135757829003601f168201915b505050505090806003018054600181600116156101000203166002900480601f0160208091040260200160405190810160405280929190818152602001828054600181600116156101000203166002900480156114125780601f106113e757610100808354040283529160200191611412565b820191906000526020600020905b8154815290600101906020018083116113f557829003601f168201915b5050505050905086565b6002600083815260200190815260200160002060000154811161143e57600080fd5b803373ffffffffffffffffffffffffffffffffffffffff1631101561146257600080fd5b4260026000848152602001908152602001600020600201541161148457600080fd5b6000600260008481526020019081526020016000209050818160000181905550338160010160006101000a81548173ffffffffffffffffffffffffffffffffffffffff021916908373ffffffffffffffffffffffffffffffffffffffff16021790555060018160030160006101000a81548160ff021916908315150217905550505050565b6040518060c00160405280600073ffffffffffffffffffffffffffffffffffffffff1681526020016000151581526020016000151581526020016000815260200160608152602001606081525090565b828054600181600116156101000203166002900490600052602060002090601f016020900481019282601f1061159a57805160ff19168380011785556115c8565b828001600101855582156115c8579182015b828111156115c75782518255916020019190600101906115ac565b5b5090506115d591906116a3565b5090565b604051806080016040528060008152602001600073ffffffffffffffffffffffffffffffffffffffff168152602001600081526020016000151581525090565b828054828255906000526020600020908101928215611692579160200282015b828111156116915782518260006101000a81548173ffffffffffffffffffffffffffffffffffffffff021916908373ffffffffffffffffffffffffffffffffffffffff16021790555091602001919060010190611639565b5b50905061169f91906116c8565b5090565b6116c591905b808211156116c15760008160009055506001016116a9565b5090565b90565b61170891905b8082111561170457600081816101000a81549073ffffffffffffffffffffffffffffffffffffffff0219169055506001016116ce565b5090565b9056fea265627a7a7231582036c9e94247b240788342651240cc787ce32949cc2f8eb6fbf46874d06acbf40d64736f6c63430005100032",
  "source": "pragma solidity >=0.5.16;\r\ncontract myNft{\r\n    uint public totalNft = 0;\r\n    mapping(uint => Nft) public allNfts; //所有的Nft\r\n    // mapping(uint => string)public Storehash; //存储hash值\r\n    mapping(uint => auction) public AuctionNft; //正在拍卖的Nft\r\n    mapping (uint => address[]) public record; //拍卖记录\r\n\r\n    struct Nft{\r\n       address payable owner; //Nft拥有者\r\n       bool isAuction; //是否正在拍卖\r\n       bool isBuy; //是否是拍卖所得\r\n       uint count; //表明交易次数    \r\n       string name;  //名字\r\n       string pictureHash;\r\n    }\r\n    \r\n    struct auction{\r\n        uint currentMoney; //当前金额\r\n        address  payer ; //当前出价者\r\n        uint endTime; //结束时间\r\n        bool isSuccess; //是否成功\r\n    }\r\n    \r\n    //创建一个新的NFT\r\n    function newNft(string memory name, string memory picture_hash) public returns(uint){ \r\n        // Nft memory nft = Nft(msg.sender, name, false, false, (new address[](10)))\r\n        Nft memory nft = Nft(msg.sender, false, false, 1, name, picture_hash);\r\n        allNfts[totalNft] = nft;\r\n        allNfts[totalNft].count = 1;\r\n        address[] memory transaction = new address[](10);\r\n        transaction[0] = msg.sender;\r\n        record[totalNft] = transaction;\r\n        totalNft++;\r\n        return totalNft;\r\n    }\r\n    \r\n    // function return_record(uint index) public returns(address[] memory){\r\n    //     return record[index];\r\n    // }\r\n\r\n    //创建一个新的拍卖\r\n    function newAuction(uint index, uint _endTime, uint money) public{\r\n        Nft storage nft = allNfts[index];\r\n        require(msg.sender == nft.owner); //必须要是该Nft的主人才能创建拍卖\r\n        require(_endTime > block.timestamp); //结束时间必须晚于当前时间\r\n        nft.isAuction = true;\r\n        auction memory newAuctions = auction(money, msg.sender, _endTime, false);\r\n        AuctionNft[index] = newAuctions;\r\n    }\r\n\r\n    //出价\r\n    function invest(uint index, uint money) public {\r\n        require(money > AuctionNft[index].currentMoney); //必须比当前金额更高\r\n        require(msg.sender.balance >= money); //需要账户余额出价多，即能买得起\r\n        require(AuctionNft[index].endTime > block.timestamp); //拍卖尚未结束\r\n        auction storage cur = AuctionNft[index];\r\n        cur.currentMoney = money;\r\n        cur.payer = msg.sender;\r\n        cur.isSuccess = true;\r\n    }\r\n\r\n    //拍卖失败\r\n    function end_auction(uint index) public{\r\n         Nft memory cur_nft = allNfts[index];\r\n         cur_nft.isAuction = false; //表明不在拍卖\r\n         allNfts[index] = cur_nft;\r\n         delete AuctionNft[index]; //删除拍卖信息\r\n    }\r\n\r\n\r\n    //最高价认领\r\n    function claim(uint index) payable public{\r\n        require(AuctionNft[index].endTime < block.timestamp);\r\n        require(AuctionNft[index].isSuccess == true);\r\n        require(msg.sender == AuctionNft[index].payer); //需要他是当前最高出价人\r\n        Nft memory cur_nft = allNfts[index];\r\n        record[index][cur_nft.count] = msg.sender;\r\n        cur_nft.isAuction = false;\r\n        cur_nft.isBuy = true;\r\n        cur_nft.count++;\r\n        cur_nft.owner.transfer(msg.value); //向原主人转账\r\n        cur_nft.owner = msg.sender;\r\n        allNfts[index] = cur_nft;\r\n        delete AuctionNft[index]; //删除拍卖信息\r\n    }\r\n\r\n}",
  "sourcePath": "C:\\Users\\zhw\\Desktop\\大三秋冬\\区块链\\大作业\\demo\\contracts\\myNft.sol",
  "compiler": {
    "name": "solc",
    "version": "0.5.16+commit.9c3226ce.Emscripten.clang"
  },
  "schemaVersion": "3.4.3",
  "updatedAt": "2021-10-31T11:07:52.840Z",
  "networkType": "ethereum",
  "devdoc": {
    "methods": {}
  },
  "userdoc": {
    "methods": {}
  }
}